S113600000180020D56000004361000045610000D5
S1136010000000000000000000000000000000007C
S113602000000000000000000000000047610000C4
S11360300000000000000000496100004B61000006
S11360404F610000576100005F610000676100005C
S11360506F610000776100007F61000087610000CC
S11360608F610000976100009F610000A76100003C
S11360708D650000B7610000BF610000C7610000CA
S1136080CF610000D7610000DF610000E76100001C
S1136090EF610000F761000069650000076200001D
S11360A00F620000176200001F62000027620000F8
S11360B02F620000376200003F6200004762000068
S11360C0487A000080F8FF1F0000000080F8FF1FDE
S11360D00801000072B600F00FFD0E4B07E01868CF
S11360E059681C000C349A6800F01AF823000A4A14
S11360F09342F4D306E018681C000834596800F091
S113610018F82300054A9342F5D362B601F09CFBCC
S1136110FEE7C046C0600000CC600000D460000010
S113612010B5002302E010C810C104339342FAD31F
S113613010BD002302E0002204C004338B42FAD3D2
S11361407047FEE7FEE7FEE7FEE7FEE7FEE710B571
S1136150FFF7FCFF10BD10B5FFF7F8FF10BD10B539
S1136160FFF7F4FF10BD10B5FFF7F0FF10BD10B539
S1136170FFF7ECFF10BD10B5FFF7E8FF10BD10B539
S1136180FFF7E4FF10BD10B5FFF7E0FF10BD10B539
S1136190FFF7DCFF10BD10B5FFF7D8FF10BD10B539
S11361A0FFF7D4FF10BD10B5FFF7D0FF10BD10B539
S11361B0FFF7CCFF10BD10B5FFF7C8FF10BD10B539
S11361C0FFF7C4FF10BD10B5FFF7C0FF10BD10B539
S11361D0FFF7BCFF10BD10B5FFF7B8FF10BD10B539
S11361E0FFF7B4FF10BD10B5FFF7B0FF10BD10B539
S11361F0FFF7ACFF10BD10B5FFF7A8FF10BD10B539
S1136200FFF7A4FF10BD10B5FFF7A0FF10BD10B538
S1136210FFF79CFF10BD10B5FFF798FF10BD10B538
S1136220FFF794FF10BD10B5FFF790FF10BD10B538
S1136230FFF78CFF10BD10B5FFF788FF10BD10B538
S1136240FFF784FF10BD10B5FFF780FF10BDFFFFFF
S113625080B500AF384AEC23D3583749374A134046
S1136260EC228B50344AEC23D3583349344A13403C
S1136270EC228B50304AEC23D3582F4980229204CD
S11362801343EC228B502C4AEC23D3582A49802206
S1136290D2051343EC228B502A4B1A6C294B032151
S11362A08A431A64274A274B126C1A64254B1A6CCA
S11362B0244B60218A431A64224B1A6C214B6021BF
S11362C00A431A641F4B1A6C1E4B0C218A431A642E
S11362D01C4B1A6C1B4B04210A431A64194B5A6C4D
S11362E0184BFF218A435A64164B5A6C154B0321F1
S11362F00A435A64134A9023D358124903229343FE
S113630090228B500F4A0F499023D35890228B50E0
S11363100C4A9423D3580B490822934394228B505C
S1136320084A9023D35807494022134390228B50A4
S1136330C046BD4680BDC04600500640FFFFFFBFBB
S1136340FFFFFFF800B0034080B500AF0A4B1B68A5
S11363501F2293431A00084B1A210A431A60C046AD
S1136360054B1B6880221340FAD0034B9B6C9BB2F5
S11363701800BD4680BDC04600B0034080B582B061
S113638000AF0E4BDB687B607B681F2293430722C0
S113639013437B60094B7A68DA60094B9A69084BAE
S11363A001210A439A61064B9A69054B10210A435D
S11363B09A61C046BD4602B080BDC046002006407A
S11363C00080044080B500AF264ADC23D358254919
S11363D0254A1340DC228B50224ADC23D35821491E
S11363E0224A1340DC228B501E4ADC23D3581D4919
S11363F0802292041343DC228B501A4ADC23D358A4
S113640018498022D2051343DC228B50184B9A681A
S1136410174B02210A439A60154B9A68144B0221C8
S11364208A439A60124B9A68114B0D210A439A6071
S11364300F4A0F4B926A9A620D4B1A6A0C4B0D4924
S11364400A431A620A4B00229A62094B1A69084BE2
S113645001218A431A61064B01225A61C046BD4696
S113646080BDC04600500640FFFFFFBFFFFFFFF89E
S113647000700340BFC62D0080B500AF024B01225F
S11364805A61C046BD4680BD0070034090B583B0DC
S113649000AF02003960FB1D1A70FB1D1B787F2BB7
S11364A028D82F4AFB1D1B785BB29B08C0339B0086
S11364B09B58FA1D1278110003220A40D200FF21D2
S11364C091400A00D2431A4011003B689B01FF220D
S11364D01A40FB1D1B78180003230340DB009A407D
S11364E01F48FB1D1B785BB29B080A43C0339B000B
S11364F01A5031E01B4AFB1D1B7819000F230B4077
S1136500083B9B0806339B00D31804331B68FA1D11
S11365101278110003220A40D200FF2191400A00A0
S1136520D2431A4011003B689B01FF221A40FB1D15
S11365301B78180003230340DB009A400948FB1D25
S11365401B781C000F232340083B9B080A43063397
S11365509B00C31804331A60C046BD4603B090BD07
S113656000E100E000ED00E080B500AF054BDA6823
S1136570044B01210A43DA60034B01221A70C0461E
S1136580BD4680BD0070034080F9FF1F80B500AF99
S1136590124B5A6980239B0313401BD00F4BDB69BA
S11365A0DAB20F4B1A700E4B1B78DBB2352B06D1C7
S11365B00C4B1B78DBB20133DAB20A4B1A70094B6D
S11365C01B78DBB2022B05D1074B01221A70054B55
S11365D000221A70C046BD4680BDC04600A00640D9
S11365E083F9FF1F7EF9FF1F7FF9FF1F80B582B07B
S11365F000AF78600A00FB1C1A707B68180001F079
S113660099F8031E03D07B68180001F0DEF8FB1C28
S113661000229A567B681100180001F0A6F8084B76
S11366201B780133DAB2064B1A70064B1B78092B20
S113663002D9034B00221A70C046BD4602B080BD89
S113664082F9FF1F84F9FF1F90B58FB000AF3A00A5
S11366501F4B1000190034231A0001F0FBF810E05E
S11366601C4B1B781C003B00180001F0AEF8030023
S11366701A00194B1A55174B1B780133DAB2154B14
S11366801A703B00180001F063F8031E03D1114B8C
S11366901B78092BE4D900237B6310E00E4B1B7895
S11366A05BB21A000D4B1900100000F0D9FF0B4B20
S11366B00221180000F0E0F97B6B01337B637B6BF4
S11366C0092BEBDDC046C046BD460FB090BDC046A9
S11366D090F8FF1F84F9FF1F80F8FF1F8CF8FF1F3D
S11366E080B500AF094994235B008022D205CA50CB
S11366F0074B802252005A61064B5A69054B2021F0
S11367000A435A61C046BD4680BDC046005006409B
S113671000A0044040F00F4080B500AFFFF7E0FF59
S1136720FFF796FD00F084F8FFF728FEFFF74AFE16
S113673002210C20FFF7AAFE03211620FFF7A6FE74
S1136740244B180000F0E4FFFFF796FEFFF7FCFD72
S113675003001A00204B1A801F4B1B889BB21800A1
S113676001F00BF900221D4B00F050FC02000B005D
S1136770100019001A4A1B4B00F0C4FD02000B0064
S113678010001900184A194B00F00AFD02000B0012
S11367900020174900F0B6FD02000B00100019009C
S11367A000F042FF0300DAB2124B1A70114B1B784F
S11367B0DBB25AB2074B11001800FFF717FF0E4B5C
S11367C01B78DBB2012BC1D1FFF73EFF0A4B00223D
S11367D01A70BBE790F8FF1F7CF9FF1F0000683FA9
S11367E01904560E2DB2E73FA01A2FDD2406F93FF7
S11367F00000394081F9FF1F7FF9FF1F80B582B087
S113680000AF0200FB1D1A70FB1D1B787F2B09D8FB
S1136810FB1D1B781A001F231A40044B01219140D1
S11368200A001A60C046BD4602B080BD00E100E027
S113683080B500AF6D4A94235B00D3586B49802226
S1136840D2051A4394235B00CA50694B5B68694ABA
S11368501A40674B802189000A435A60644B5A6886
S1136860634B02210A435A60614B5A68604B012111
S11368700A435A605E4B1B685E4A1A405C4B802197
S113688089000A431A605A4B1A68594B02210A4379
S11368901A60574B1A68564B01210A431A60564A2C
S11368A082239B00D358544901221A4382239B001C
S11368B0CA50514A81239B00D3584E4A13404E4933
S11368C0C02292001A4381239B00CA50474AD42312
S11368D05B00D358494A13404449802292041A4326
S11368E0D4235B00CA50414AD4235B00D3583F49A8
S11368F08022D2051A43D4235B00CA50404B9A69C4
S11369003F4B40490A409A613D4B9A693C4B3E4992
S11369100A409A613A4B1B695B0B5A03384B34218A
S11369200A431A61364B1A69354B802189020A439E
S11369301A61334B1B69354A1A40314BC021890413
S11369400A431A612E4B1A692D4B31490A401A61C8
S11369502B4B9A692A4B2F490A409A61284B9A6912
S1136960274B10218A439A61254B9A69244B0221B3
S11369708A439A61224B1A69214B27490A401A61BA
S11369801F4B5A691E4B22490A405A611C4B9A6993
S11369901B4B802189030A439A61194B9A69184B4E
S11369A0802109030A439A61154B9A69144B80218B
S11369B0C9020A439A61124B9A69114B80218903D7
S11369C00A439A610E4B9A690D4B802109030A43CD
S11369D09A610B4B9A690A4B8021C9020A439A6156
S11369E00C20FFF70BFFC046BD4680BD005006409B
S11369F000A00440FFF8FFFF00400640FFFFFFF83F
S1136A0000A00640FFFFF7FFFFFFFBFFFFFFFFE0D3
S1136A10FFFFFFDFFFF7FFFFFFDFFFFF80B582B05F
S1136A2000AF0200FB1D1A70114B9A69104B8021B4
S1136A3009030A439A61C0460D4B5A6980231B041B
S1136A401340F9D00A4BFA1D1278DA61C046084B9C
S1136A505A698023DB031340F9D0054B9A69044B30
S1136A6004490A409A61C046BD4602B080BDC04692
S1136A7000A00640FFFFF7FF80B584B000AF786048
S1136A800A00FB1C1A700A20FFF7C8FF184B9A690A
S1136A90174B802109030A439A610F23FB18002234
S1136AA01A7014E0C046124B5A6980231B04134029
S1136AB0F9D00F217B181B787A68D31800229A56D4
S1136AC00B4BDA617B181A787B1801321A700F238A
S1136AD0FA18FB1C12781B789A42E3D3044B9A6988
S1136AE0034B04490A409A61C046BD4604B080BDC8
S1136AF000A00640FFFFF7FF80B500AF104B1A68F7
S1136B0080239B01134003D00D4B0E4A5A6005E0CD
S1136B100B4B0D4A5A600A4B0C4A5A60084B0C4AFC
S1136B209A60074B1B68A02293431A00044B202150
S1136B300A431A6000F083FEC046BD4680BDC046CD
S1136B400020054020C528D920C5000028D9000010
S1136B50FFFF000070B5184C18492200002000F017
S1136B605DF8802380225B0000212000D20000F029
S1136B702FF8134C134D22002900012000F04EF889
S1136B80802380225B0000212000D20000F020F846
S1136B900D4B1B68022B0DDD0C4C2900220002203A
S1136BA000F03CF880238022002120005B00D2000A
S1136BB000F00EF870BDC046C8F8FF1F447A00000C
S1136BC004F9FF1F467A0000407A000040F9FF1FD5
S1136BD0F0B5C56804000120AE070CD08020800009
S1136BE0824213D08020C000824205D08020400021
S1136BF082420BD0FF38F0BD21000123243115431C
S1136C00002021612160E361E560F4E7024F5E1E2C
S1136C100120BE42F3D9EEE7FEFFFF00F7B50D00F9
S1136C2001901000140000F033F82B78722B1CD064
S1136C30772B1DD0612B26D1144A593B0220691CA5
S1136C40032784460426012508782B2813D06228BC
S1136C5016D0E260019A62611B0704D5022200216A
S1136C60200000F063F82000FEBD00230122E5E7C8
S1136C7004230222E2E760463A4303430131E3E797
S1136C8032432B43FAE70024EDE7C04602800000BC
S1136C90F0B5C56804004769066989B0AB0720D020
S1136CA02B0716D400F022F8380000F0B4FE2B05B0
S1136CB002D5300000F0DFFD0B4BAD0DAD059D425C
S1136CC007D120226846216A00F0B4FE684600F02D
S1136CD0C5FD3C220021200000F0C9FD002009B0C0
S1136CE0F0BD01204042FAE7000080ADF8B500286D
S1136CF012D000F0E5F805002800F8BD3800604324
S1136D00084BC01800F0DCF8002801D001256D42C2
S1136D100134A642F2DCEFE7034B040005003C27F4
S1136D201E68F6E7C8F8FF1F407A0000F7B543690C
S1136D30C6680193364B04000D0000921E420BD02E
S1136D40019800F06EFE071E06D1009B012B06D0B1
S1136D50022B2DD0002B06D002273800FEBD2000C8
S1136D6000F05AF82D18002DF6DBB30404D523687F
S1136D70E26A9A4200D2E362A369AB420EDCE16AA2
S1136D8022688A4200D20A002169D0180091401A70
S1136D90A84203DB206B1918A94228DC20231E43D8
S1136DA00023A562A36063601A4B1E40E660D4E72B
S1136DB0019800F033FEE268002804DA80231343CC
S1136DC00127E360C9E7E16A2368994200D90B000F
S1136DD0A1695B1821695B1A920603D5A26A9342E2
S1136DE000DA1300834200DA0300ED18BBE7EB1A64
S1136DF0B50701D5181AA060F00703D50099521AF7
S1136E009A1A6260009AD118202321609E43CBE72E
S1136E1003001000BFCFF7FFC16802008B0705D144
S1136E20212201200E4B40421A60704720230B4060
S1136E3009030AD5002B02D0806A0138F5E793696B
S1136E400068C0181369C01AF7E7002B01D0806AE4
S1136E50EBE70368816900695B18181AE5E7C04627
S1136E60C4F8FF1F0300032110B51A000B4219D107
S1136E70114C1368114959189943214219D0DCB2B5
S1136E80511C002C0BD0FF242402911C234206D059
S1136E90FF2109040B40591E8B41D318D91C013022
S1136EA0081A05E001335C1E2478002CDDD1101A89
S1136EB010BD0432DDE7C04680808080FFFEFEFE08
S1136EC0C36870B503221E0004001640134211D09B
S1136ED09B0611D5856A00F079F8E368094A200019
S1136EE01340E36000F010F800220600290020009F
S1136EF0FFF71CFF300070BD83690568ED18036956
S1136F00ED1AEAE7FFCFFFFF70B50400134AE36808
S1136F1005691A400168C06AE26082221A40022AA6
S1136F2002D00120404270BDDB030CD5814200D267
S1136F3001008D4209D10023094AA360E368E56298
S1136F4013402560E3600020EDE722002800491B80
S1136F5000F008F80028EED0E3E7C046FFFFF7FF93
S1136F60FFFFFEFFF7B5D5680F00140056690190C6
S1136F70EB0205D5102330001D4300F04FFDA06146
S1136F80104B1D420FD03000A16900F050FD0028C5
S1136F9006DA80230120E26840421343E3600FE0F5
S1136FA0094B1D40E5603A003000019900F045FDB1
S1136FB04300A2695B08FB1AD318A3610028E8D137
S1136FC0FEBDC04610000200EFFFFDFF2022C36893
S1136FD010B59343C3608269836A04009A420CD05B
S1136FE0FFF792FFE268074B1A4010231343E36054
S1136FF0A36AA3612369E3622360E368024A13403E
S1137000E36010BDEFCFFFFFBFBFFFFFF0B51D0072
S11370108BB002900391039B14005A002B00039938
S1137020520D4B40DB0FDB070693002A07D0534970
S11370308A4204D06B005B0D01D08B4211D1039BBB
S11370404F495B008B4200D886E04E4A934205D1FB
S11370506B009B184C4A934200D889E000204B49AE
S11370606FE0D3180793039B620D1F0380233F0B2C
S11370705B031F43EB021343802212061A430023CF
S113708038001900089200F084FC0023E202049006
S1137090059138001900150000F07BFC00230091D5
S11370A001930099019A049B059C5B1854410027A5
S11370B004930594029B06001A0028003B00390043
S11370C000F067FC0C003B003900029A0990089814
S11370D000F05FFC2200049C059D3B008018594190
S11370E0801979410A00802112196B41099C4903D6
S11370F0A7080743264C079804198B420CD225494C
S113710004008C461000190080185941FD0F0543F6
S11371102A000B0064447F000021F80F80185941B5
S1137120802203001206974203D1012302009A43EE
S11371301300194A944206D81800069A24050A43F3
S1137140A1180BB0F0BD002C03DB069A134B1A43B5
S1137150069200200699F4E76A008A42F9D909499F
S11371608A4200D07AE780229203934200D275E7E4
S11371700A4B069A00201A431100E2E7FF070000B9
S1137180FFFFDFFF0000E0FF0000C0FF0000F87F0A
S113719001FCFFFF00FCFFFFFD0700000000F07F83
S11371A0F0B587B00090019102920393019B019A7C
S11371B05F00039B7F0D53400593002F08D04A4D79
S11371C0AF4205D0039B5C00640D01D0AC4207D1F3
S11371D0019B464E5D00B54265D9002044494CE010
S11371E0019B3F1BD902009B029A5C0D80231B0666
S11371F09C46009B2143DC0263460B43510D6246CF
S11372001D00039BDB020B431343029AD202AB42E1
S113721002D834D1A24232D93649012650087F1807
S1137220D907084335225908B44600235B00A94214
S113723006D801D1A04203D86646241A8D413343AF
S113724024196D41212A24D0013A002AEED1A94201
S113725008D801D1A04205D801335A425A410499B1
S11372608A180492059A2449D20FD2078F4213D860
S113727018003F05BF18049AB91807B0F0BDE90714
S11372808C4666466008690806430D0034001B49B5
S1137290C3E720220493C9E7002F01DB184B1A43EC
S11372A000201100E9E7039B5C00B44200D994E795
S11372B0019A134380225B009203934200D28CE72D
S11372C0059B0020DB0FDB0795420BD3944203D2CE
S11372D00B4A00201A43E4E7B442F9D10020A54246
S11372E000D17BE71900C8E7FF0700000000E0FFBA
S11372F00000F87FFD030000FD070000FE0300000E
S11373000000F07FF7B514001D001A008C4607003A
S113731026004B4007D580273F062200EB1900F0DA
S1137320DBF803B0F0BD8D4203D884420BD38D4209
S113733009D1802212069A180B0053409C463B0048
S113734037001E006A406346110D1B0D0191581A47
S11373505D4C5E491940A14206D163461B0300D12E
S1137360ADE000205A49DCE7884204D1002832D03D
S113737061463800D5E78025614612036D030C038E
S1137380110B2A00240B224329431F2857D80C0031
S1137390C440121B3400C44001982030C01A8140FC
S11373A00D003100254381407D1BAF4216D2013AC6
S11373B0002901D04942013DC020400302425BD173
S11373C05000EA0F02436800CD0F11000543294322
S11373D0023B002910D100200021A2E70029EBD0B4
S11373E0013D681C444260414942121AE4E7290EF7
S11373F012020A432D02083B510BF8D0510C04D160
S1137400290F12010A432D01043BD10C04D1A90F09
S113741092000A43AD00023B110D04D1E90F520062
S11374200A436D00013B6046D90AC40FA14203D14F
S11374301B059918280074E70020E10771E7352837
S113744030D80D0020242038C540241AA14034002F
S11374507D1BAF42BF41C4407F42D21B214336064D
S113746008D0FF200143013D681C44426041494269
S1137470121A01E00029F6D1D00209D4013B5C05BF
S11374800DD0E80F520002436D00C80F05434900B8
S1137490104C1440002907DB1B051919CAE720000A
S11374A019053EE73D00F7E701356A426A41A41831
S11374B0802212069142EFD101229543ECE7002885
S11374C000D055E74DE7C046FF070000FFF7FFFF78
S11374D00000F87FFFFFEFFFF0B51F0016003D002E
S11374E085B00C0003003A000291039001964D40D0
S11374F007D58024240632003B19FFF703FF05B0AB
S1137500F0BD8F4204D93C000399029A019B01917A
S11375104149424D200D170DC61B0140A94204D11B
S1137520220306D000203E49E9E78E4204D1002E12
S11375306DD021001800E2E78025210312036D03BA
S1137540090B120B29432A431F2E1ED81500F540A0
S11375502037AC46019D3F1AF540BA402A43019DAD
S11375609B18BD4061442E009A422AD901315D1C0A
S11375708A022CD40138002E0ADA01338022120642
S1137580964205D10122934302E0352E05D90138F4
S11375900005451829001800B1E71700203EF74000
S11375A0DB19BB42BF41019D7F42C9192027F54029
S11375B0BF1BBA402E001643019A150601D0FF22C4
S11375C016438A021BD55D1C6B426B41C918002E01
S11375D001D102239D43240D4B082405E418114BCB
S11375E062009A4207D86D08C907294323000A009C
S11375F01000190083E7013000220305F8E7013881
S1137600002EC5DA01335A425A418918B6E7E40F0D
S11376103000E10773E7C046FFF7FFFFFF070000F4
S11376200000F87FFFFFDFFF0B4B0A0D30B59B1AFC
S1137630FF2B07D8400DCA020243802000061043E6
S1137640D84030BD80220020044BD205CB189A428A
S113765040414042F5E7C0461E040000000010C04F
S113766080B586B000AF7860396000237B617B68A9
S11376700A21180000F018F90B00DBB23033D9B23C
S11376807B695A1C7A611A003B689B184AB21A70CB
S11376907B680A21180000F007F903007B607B680F
S11376A0002BE4D100233B6120E03B693A68D31806
S11376B000229A560F203B181A707A693B69D31A34
S11376C0013B3A68D2183B693968CB18127852B238
S11376D01A707A693B69D31A013B3A68D3183A188D
S11376E0127852B21A703B6901333B617B69002BFB
S11376F000DA01335B101A003B699342D5DB7B69E6
S11377003A68D31800221A70C046BD4606B080BD40
S113771080B582B000AF78607B6800221A607B6815
S1137720012252425A607B6800229A60C046BD46DC
S113773002B080BD80B582B000AF78607B689B6882
S11377400A3B5A425341DBB21800BD4602B080BD29
S113775080B582B000AF78607B689B685A42534121
S1137760DBB21800BD4602B080BD80B584B000AF66
S1137770786039600023FB607B681800FFF7DAFF4C
S1137780031E02D00023FB601AE07B685B680133B0
S11377900A21180000F085F80B001A007B685A6073
S11377A07B685B687A6802339B00D31804333A68B9
S11377B01A607B689B685A1C7B689A600123FB6093
S11377C0FB681800BD4604B080BD90B585B000AF1D
S11377D078600F243B1900221A707B681800FFF7A9
S11377E0B7FF031E03D03B197F221A701FE07B688A
S11377F01B687A6802339B00D31804331A680E247A
S11378003B191A707B681B6801330A21180000F0C9
S113781048F80B001A007B681A607B689B685A1E44
S11378207B689A600F23FB183A1912781A700F2399
S1137830FB181B785BB21800BD4605B090BD80B53F
S113784000AFC046BD4680BD10B5FFF783F9FEF713
S113785063FF10BD10B500F0B3F810BD10B50400FF
S1137860FFF700FB0100200000F0DEF810BD10B5AA
S113787000F0BCF810BD10B5002811D080210C38E0
S1137880490501608268002A0AD013688B4207D137
S11378904368546803331B19436093688360F1E7BA
S11378A010BD03000B4321D4002931D00122D2079B
S11378B0030901E0090112099942FBD9430801E0D7
S11378C0490052089942FBD900E04908401A07D3FD
S11378D05241FAD301461046704749084018F7D27E
S11378E09218FAD34018014610467047CB0F00D0C7
S11378F04942021000D54042534008B5FFF7D4FF77
S11379000CBC521000D34042002A00D5494218470B
S1137910F446002000F001F86047704710B50028D5
S113792028D0030C12D10004030E13D10002030F5C
S113793014D10001830F15D18000002816DB40000C
S1137940C412631842051000190010BD80235B04A3
S1137950C918E9E780231B04C918E8E78023DB037F
S1137960C918E7E780239B03C918E6E780235B0374
S1137970C918E5E700200021E7E7C30F10B5D907D0
S1137980002B00D040428023DB05C918FFF7C6FF57
S113799010BD10B543435143C918040C130C5C4388
S11379A0091992B2040C544380B243435043220455
S11379B0240C801861411A041B0C8018594110BD15
S11379C08446830708D18B0706D1131F04D304C947
S11379D004C0043BFBD21A1D524205D0891A801AF6
S11379E08B5C83540132FBD1604670478446043A71
S11379F009D3830707D109060B0A19430B0C194352
S1137A00043A02C0FCD2043203D001700130013ABE
S1137A10FBD160467047012040427047012040423C
S1137A2070470120404270470120404270470120C6
S1137A304042704701204042704710007047FFFFEA
S10B7A4003000000720077004EZ
